{
  "_format": "hh-sol-artifact-1",
  "contractName": "AgentRootRegistry",
  "sourceName": "src/AgentRootRegistry.sol",
  "abi": [
    {
      "inputs": [],
      "stateMutability": "nonpayable",
      "type": "constructor"
    },
    {
      "inputs": [
        {
          "internalType": "address",
          "name": "sender",
          "type": "address"
        },
        {
          "internalType": "uint256",
          "name": "tokenId",
          "type": "uint256"
        },
        {
          "internalType": "address",
          "name": "owner",
          "type": "address"
        }
      ],
      "name": "ERC721IncorrectOwner",
      "type": "error"
    },
    {
      "inputs": [
        {
          "internalType": "address",
          "name": "operator",
          "type": "address"
        },
        {
          "internalType": "uint256",
          "name": "tokenId",
          "type": "uint256"
        }
      ],
      "name": "ERC721InsufficientApproval",
      "type": "error"
    },
    {
      "inputs": [
        {
          "internalType": "address",
          "name": "approver",
          "type": "address"
        }
      ],
      "name": "ERC721InvalidApprover",
      "type": "error"
    },
    {
      "inputs": [
        {
          "internalType": "address",
          "name": "operator",
          "type": "address"
        }
      ],
      "name": "ERC721InvalidOperator",
      "type": "error"
    },
    {
      "inputs": [
        {
          "internalType": "address",
          "name": "owner",
          "type": "address"
        }
      ],
      "name": "ERC721InvalidOwner",
      "type": "error"
    },
    {
      "inputs": [
        {
          "internalType": "address",
          "name": "receiver",
          "type": "address"
        }
      ],
      "name": "ERC721InvalidReceiver",
      "type": "error"
    },
    {
      "inputs": [
        {
          "internalType": "address",
          "name": "sender",
          "type": "address"
        }
      ],
      "name": "ERC721InvalidSender",
      "type": "error"
    },
    {
      "inputs": [
        {
          "internalType": "uint256",
          "name": "tokenId",
          "type": "uint256"
        }
      ],
      "name": "ERC721NonexistentToken",
      "type": "error"
    },
    {
      "inputs": [
        {
          "internalType": "address",
          "name": "owner",
          "type": "address"
        }
      ],
      "name": "OwnableInvalidOwner",
      "type": "error"
    },
    {
      "inputs": [
        {
          "internalType": "address",
          "name": "account",
          "type": "address"
        }
      ],
      "name": "OwnableUnauthorizedAccount",
      "type": "error"
    },
    {
      "anonymous": false,
      "inputs": [
        {
          "indexed": true,
          "internalType": "uint256",
          "name": "agentId",
          "type": "uint256"
        },
        {
          "indexed": false,
          "internalType": "address",
          "name": "deployer",
          "type": "address"
        },
        {
          "indexed": false,
          "internalType": "uint256",
          "name": "falseClaimCount",
          "type": "uint256"
        }
      ],
      "name": "AgentFlagged",
      "type": "event"
    },
    {
      "anonymous": false,
      "inputs": [
        {
          "indexed": true,
          "internalType": "uint256",
          "name": "agentId",
          "type": "uint256"
        },
        {
          "indexed": false,
          "internalType": "address",
          "name": "deployer",
          "type": "address"
        },
        {
          "indexed": false,
          "internalType": "string",
          "name": "agentURI",
          "type": "string"
        }
      ],
      "name": "AgentRegistered",
      "type": "event"
    },
    {
      "anonymous": false,
      "inputs": [
        {
          "indexed": true,
          "internalType": "address",
          "name": "owner",
          "type": "address"
        },
        {
          "indexed": true,
          "internalType": "address",
          "name": "approved",
          "type": "address"
        },
        {
          "indexed": true,
          "internalType": "uint256",
          "name": "tokenId",
          "type": "uint256"
        }
      ],
      "name": "Approval",
      "type": "event"
    },
    {
      "anonymous": false,
      "inputs": [
        {
          "indexed": true,
          "internalType": "address",
          "name": "owner",
          "type": "address"
        },
        {
          "indexed": true,
          "internalType": "address",
          "name": "operator",
          "type": "address"
        },
        {
          "indexed": false,
          "internalType": "bool",
          "name": "approved",
          "type": "bool"
        }
      ],
      "name": "ApprovalForAll",
      "type": "event"
    },
    {
      "anonymous": false,
      "inputs": [
        {
          "indexed": true,
          "internalType": "uint256",
          "name": "agentId",
          "type": "uint256"
        },
        {
          "indexed": false,
          "internalType": "uint256",
          "name": "erc8004TokenId",
          "type": "uint256"
        }
      ],
      "name": "ERC8004Linked",
      "type": "event"
    },
    {
      "anonymous": false,
      "inputs": [
        {
          "indexed": true,
          "internalType": "uint256",
          "name": "agentId",
          "type": "uint256"
        },
        {
          "indexed": false,
          "internalType": "bytes32",
          "name": "nullifier",
          "type": "bytes32"
        }
      ],
      "name": "NullifierBound",
      "type": "event"
    },
    {
      "anonymous": false,
      "inputs": [
        {
          "indexed": true,
          "internalType": "address",
          "name": "previousOwner",
          "type": "address"
        },
        {
          "indexed": true,
          "internalType": "address",
          "name": "newOwner",
          "type": "address"
        }
      ],
      "name": "OwnershipTransferred",
      "type": "event"
    },
    {
      "anonymous": false,
      "inputs": [
        {
          "indexed": true,
          "internalType": "address",
          "name": "from",
          "type": "address"
        },
        {
          "indexed": true,
          "internalType": "address",
          "name": "to",
          "type": "address"
        },
        {
          "indexed": true,
          "internalType": "uint256",
          "name": "tokenId",
          "type": "uint256"
        }
      ],
      "name": "Transfer",
      "type": "event"
    },
    {
      "inputs": [
        {
          "internalType": "uint256",
          "name": "",
          "type": "uint256"
        }
      ],
      "name": "agents",
      "outputs": [
        {
          "internalType": "string",
          "name": "agentURI",
          "type": "string"
        },
        {
          "internalType": "uint256",
          "name": "erc8004TokenId",
          "type": "uint256"
        },
        {
          "internalType": "bytes32",
          "name": "worldIdNullifier",
          "type": "bytes32"
        },
        {
          "internalType": "bool",
          "name": "isFlagged",
          "type": "bool"
        },
        {
          "internalType": "uint256",
          "name": "falseClaimCount",
          "type": "uint256"
        }
      ],
      "stateMutability": "view",
      "type": "function"
    },
    {
      "inputs": [
        {
          "internalType": "address",
          "name": "to",
          "type": "address"
        },
        {
          "internalType": "uint256",
          "name": "tokenId",
          "type": "uint256"
        }
      ],
      "name": "approve",
      "outputs": [],
      "stateMutability": "nonpayable",
      "type": "function"
    },
    {
      "inputs": [
        {
          "internalType": "address",
          "name": "owner",
          "type": "address"
        }
      ],
      "name": "balanceOf",
      "outputs": [
        {
          "internalType": "uint256",
          "name": "",
          "type": "uint256"
        }
      ],
      "stateMutability": "view",
      "type": "function"
    },
    {
      "inputs": [
        {
          "internalType": "uint256",
          "name": "agentId",
          "type": "uint256"
        },
        {
          "internalType": "bytes32",
          "name": "nullifier",
          "type": "bytes32"
        }
      ],
      "name": "bindWorldId",
      "outputs": [],
      "stateMutability": "nonpayable",
      "type": "function"
    },
    {
      "inputs": [
        {
          "internalType": "address",
          "name": "",
          "type": "address"
        },
        {
          "internalType": "uint256",
          "name": "",
          "type": "uint256"
        }
      ],
      "name": "deployerAgents",
      "outputs": [
        {
          "internalType": "uint256",
          "name": "",
          "type": "uint256"
        }
      ],
      "stateMutability": "view",
      "type": "function"
    },
    {
      "inputs": [
        {
          "internalType": "uint256",
          "name": "agentId",
          "type": "uint256"
        },
        {
          "internalType": "uint256",
          "name": "falseClaimCount",
          "type": "uint256"
        }
      ],
      "name": "flagAgent",
      "outputs": [],
      "stateMutability": "nonpayable",
      "type": "function"
    },
    {
      "inputs": [
        {
          "internalType": "uint256",
          "name": "tokenId",
          "type": "uint256"
        }
      ],
      "name": "getApproved",
      "outputs": [
        {
          "internalType": "address",
          "name": "",
          "type": "address"
        }
      ],
      "stateMutability": "view",
      "type": "function"
    },
    {
      "inputs": [
        {
          "internalType": "address",
          "name": "deployer",
          "type": "address"
        }
      ],
      "name": "getDeployerAgents",
      "outputs": [
        {
          "internalType": "uint256[]",
          "name": "",
          "type": "uint256[]"
        }
      ],
      "stateMutability": "view",
      "type": "function"
    },
    {
      "inputs": [
        {
          "internalType": "uint256",
          "name": "agentId",
          "type": "uint256"
        }
      ],
      "name": "getTraceChain",
      "outputs": [
        {
          "internalType": "address",
          "name": "deployer",
          "type": "address"
        },
        {
          "internalType": "uint256",
          "name": "erc8004TokenId",
          "type": "uint256"
        },
        {
          "internalType": "bytes32",
          "name": "nullifier",
          "type": "bytes32"
        },
        {
          "internalType": "bool",
          "name": "isFlagged",
          "type": "bool"
        },
        {
          "internalType": "uint256",
          "name": "falseClaimCount",
          "type": "uint256"
        },
        {
          "internalType": "string",
          "name": "agentURI",
          "type": "string"
        }
      ],
      "stateMutability": "view",
      "type": "function"
    },
    {
      "inputs": [
        {
          "internalType": "address",
          "name": "owner",
          "type": "address"
        },
        {
          "internalType": "address",
          "name": "operator",
          "type": "address"
        }
      ],
      "name": "isApprovedForAll",
      "outputs": [
        {
          "internalType": "bool",
          "name": "",
          "type": "bool"
        }
      ],
      "stateMutability": "view",
      "type": "function"
    },
    {
      "inputs": [
        {
          "internalType": "uint256",
          "name": "agentId",
          "type": "uint256"
        },
        {
          "internalType": "uint256",
          "name": "erc8004TokenId",
          "type": "uint256"
        }
      ],
      "name": "linkERC8004",
      "outputs": [],
      "stateMutability": "nonpayable",
      "type": "function"
    },
    {
      "inputs": [],
      "name": "name",
      "outputs": [
        {
          "internalType": "string",
          "name": "",
          "type": "string"
        }
      ],
      "stateMutability": "view",
      "type": "function"
    },
    {
      "inputs": [],
      "name": "nextAgentId",
      "outputs": [
        {
          "internalType": "uint256",
          "name": "",
          "type": "uint256"
        }
      ],
      "stateMutability": "view",
      "type": "function"
    },
    {
      "inputs": [],
      "name": "owner",
      "outputs": [
        {
          "internalType": "address",
          "name": "",
          "type": "address"
        }
      ],
      "stateMutability": "view",
      "type": "function"
    },
    {
      "inputs": [
        {
          "internalType": "uint256",
          "name": "tokenId",
          "type": "uint256"
        }
      ],
      "name": "ownerOf",
      "outputs": [
        {
          "internalType": "address",
          "name": "",
          "type": "address"
        }
      ],
      "stateMutability": "view",
      "type": "function"
    },
    {
      "inputs": [
        {
          "internalType": "string",
          "name": "agentURI",
          "type": "string"
        }
      ],
      "name": "registerAgent",
      "outputs": [
        {
          "internalType": "uint256",
          "name": "",
          "type": "uint256"
        }
      ],
      "stateMutability": "nonpayable",
      "type": "function"
    },
    {
      "inputs": [],
      "name": "renounceOwnership",
      "outputs": [],
      "stateMutability": "nonpayable",
      "type": "function"
    },
    {
      "inputs": [
        {
          "internalType": "address",
          "name": "from",
          "type": "address"
        },
        {
          "internalType": "address",
          "name": "to",
          "type": "address"
        },
        {
          "internalType": "uint256",
          "name": "tokenId",
          "type": "uint256"
        }
      ],
      "name": "safeTransferFrom",
      "outputs": [],
      "stateMutability": "nonpayable",
      "type": "function"
    },
    {
      "inputs": [
        {
          "internalType": "address",
          "name": "from",
          "type": "address"
        },
        {
          "internalType": "address",
          "name": "to",
          "type": "address"
        },
        {
          "internalType": "uint256",
          "name": "tokenId",
          "type": "uint256"
        },
        {
          "internalType": "bytes",
          "name": "data",
          "type": "bytes"
        }
      ],
      "name": "safeTransferFrom",
      "outputs": [],
      "stateMutability": "nonpayable",
      "type": "function"
    },
    {
      "inputs": [
        {
          "internalType": "address",
          "name": "operator",
          "type": "address"
        },
        {
          "internalType": "bool",
          "name": "approved",
          "type": "bool"
        }
      ],
      "name": "setApprovalForAll",
      "outputs": [],
      "stateMutability": "nonpayable",
      "type": "function"
    },
    {
      "inputs": [
        {
          "internalType": "bytes4",
          "name": "interfaceId",
          "type": "bytes4"
        }
      ],
      "name": "supportsInterface",
      "outputs": [
        {
          "internalType": "bool",
          "name": "",
          "type": "bool"
        }
      ],
      "stateMutability": "view",
      "type": "function"
    },
    {
      "inputs": [],
      "name": "symbol",
      "outputs": [
        {
          "internalType": "string",
          "name": "",
          "type": "string"
        }
      ],
      "stateMutability": "view",
      "type": "function"
    },
    {
      "inputs": [
        {
          "internalType": "uint256",
          "name": "tokenId",
          "type": "uint256"
        }
      ],
      "name": "tokenURI",
      "outputs": [
        {
          "internalType": "string",
          "name": "",
          "type": "string"
        }
      ],
      "stateMutability": "view",
      "type": "function"
    },
    {
      "inputs": [
        {
          "internalType": "address",
          "name": "from",
          "type": "address"
        },
        {
          "internalType": "address",
          "name": "to",
          "type": "address"
        },
        {
          "internalType": "uint256",
          "name": "tokenId",
          "type": "uint256"
        }
      ],
      "name": "transferFrom",
      "outputs": [],
      "stateMutability": "nonpayable",
      "type": "function"
    },
    {
      "inputs": [
        {
          "internalType": "address",
          "name": "newOwner",
          "type": "address"
        }
      ],
      "name": "transferOwnership",
      "outputs": [],
      "stateMutability": "nonpayable",
      "type": "function"
    }
  ],
  "bytecode": "0x60806040526001600755348015610014575f5ffd5b5033604051806040016040528060098152602001681059d95b9d149bdbdd60ba1b815250604051806040016040528060048152602001631051d49560e21b815250815f90816100639190610198565b5060016100708282610198565b5050506001600160a01b0381166100a057604051631e4fbdf760e01b81525f600482015260240160405180910390fd5b6100a9816100af565b50610252565b600680546001600160a01b038381166001600160a01b0319831681179093556040519116919082907f8be0079c531659141344cd1fd0a4f28419497f9722a3daafe3b4186f6b6457e0905f90a35050565b634e487b7160e01b5f52604160045260245ffd5b600181811c9082168061012857607f821691505b60208210810361014657634e487b7160e01b5f52602260045260245ffd5b50919050565b601f82111561019357805f5260205f20601f840160051c810160208510156101715750805b601f840160051c820191505b81811015610190575f815560010161017d565b50505b505050565b81516001600160401b038111156101b1576101b1610100565b6101c5816101bf8454610114565b8461014c565b6020601f8211600181146101f7575f83156101e05750848201515b5f19600385901b1c1916600184901b178455610190565b5f84815260208120601f198516915b828110156102265787850151825560209485019460019092019101610206565b508482101561024357868401515f19600387901b60f8161c191681555b50505050600190811b01905550565b61194d8061025f5f395ff3fe608060405234801561000f575f5ffd5b506004361061016d575f3560e01c8063715018a6116100d957806395d89b4111610093578063b88d4fde1161006e578063b88d4fde1461034d578063c87b56dd14610360578063e985e9c514610373578063f2fde38b14610386575f5ffd5b806395d89b411461031f5780639af0715714610327578063a22cb4651461033a575f5ffd5b8063715018a61461029b578063776eb380146102a357806378352ce1146102b657806379fcb6f8146102d657806381308827146102fb5780638da5cb5b1461030e575f5ffd5b80632d2a95851161012a5780632d2a95851461021457806330efc4981461023557806342842e0e1461023e578063513856c8146102515780636352211e1461027557806370a0823114610288575f5ffd5b806301ffc9a71461017157806306fdde0314610199578063081812fc146101ae578063095ea7b3146101d957806323b872dd146101ee57806329aad3c214610201575b5f5ffd5b61018461017f366004611380565b610399565b60405190151581526020015b60405180910390f35b6101a16103ea565b60405161019091906113c9565b6101c16101bc3660046113db565b610479565b6040516001600160a01b039091168152602001610190565b6101ec6101e736600461140d565b6104a0565b005b6101ec6101fc366004611435565b6104af565b6101ec61020f36600461146f565b61053d565b61022761022236600461151a565b6105e1565b604051908152602001610190565b61022760075481565b6101ec61024c366004611435565b6106e8565b61026461025f3660046113db565b610707565b60405161019095949392919061155f565b6101c16102833660046113db565b6107c1565b610227610296366004611595565b6107cb565b6101ec610810565b6101ec6102b136600461146f565b610823565b6102c96102c4366004611595565b610896565b60405161019091906115ae565b6102e96102e43660046113db565b6108ff565b604051610190969594939291906115f0565b61022761030936600461140d565b610a15565b6006546001600160a01b03166101c1565b6101a1610a40565b6101ec61033536600461146f565b610a4f565b6101ec610348366004611636565b610b35565b6101ec61035b36600461166f565b610b40565b6101a161036e3660046113db565b610b58565b6101846103813660046116e6565b610bc9565b6101ec610394366004611595565b610bf6565b5f6001600160e01b031982166380ac58cd60e01b14806103c957506001600160e01b03198216635b5e139f60e01b145b806103e457506301ffc9a760e01b6001600160e01b03198316145b92915050565b60605f80546103f890611717565b80601f016020809104026020016040519081016040528092919081815260200182805461042490611717565b801561046f5780601f106104465761010080835404028352916020019161046f565b820191905f5260205f20905b81548152906001019060200180831161045257829003601f168201915b5050505050905090565b5f61048382610c33565b505f828152600460205260409020546001600160a01b03166103e4565b6104ab828233610c6b565b5050565b6001600160a01b0382166104dd57604051633250574960e11b81525f60048201526024015b60405180910390fd5b5f6104e9838333610c78565b9050836001600160a01b0316816001600160a01b031614610537576040516364283d7b60e01b81526001600160a01b03808616600483015260248201849052821660448201526064016104d4565b50505050565b33610547836107c1565b6001600160a01b03161461058e5760405162461bcd60e51b815260206004820152600e60248201526d139bdd081e5bdd5c881859d95b9d60921b60448201526064016104d4565b5f82815260086020526040908190206001018290555182907fa6053911c2fce7c205654862898eed4983b5805c1be8e112830f43b289c138db906105d59084815260200190565b60405180910390a25050565b600780545f91829190826105f48361174f565b9190505590506106043382610d6a565b6040805160a0810182528481525f6020808301829052828401829052606083018290526080830182905284825260089052919091208151819061064790826117b7565b506020828101516001838101919091556040808501516002850155606085015160038501805460ff1916911515919091179055608090940151600490930192909255335f8181526009835284812080549485018155815291909120909101839055905182917f0d063c6022bff16d09991a9f91882ffa112f5fb2529136f65eb4c77bbd047e43916106da91908790611872565b60405180910390a292915050565b61070283838360405180602001604052805f815250610b40565b505050565b60086020525f908152604090208054819061072190611717565b80601f016020809104026020016040519081016040528092919081815260200182805461074d90611717565b80156107985780601f1061076f57610100808354040283529160200191610798565b820191905f5260205f20905b81548152906001019060200180831161077b57829003601f168201915b5050506001840154600285015460038601546004909601549495919490935060ff909116915085565b5f6103e482610c33565b5f6001600160a01b0382166107f5576040516322718ad960e21b81525f60048201526024016104d4565b506001600160a01b03165f9081526003602052604090205490565b610818610dcb565b6108215f610df8565b565b61082b610dcb565b5f82815260086020526040902060038101805460ff19166001179055600401819055817fb3e43c6b376ca0b00b181db47332dd1e6294b03914b754b0fd0cbd9eb8b1d964610878826107c1565b604080516001600160a01b03909216825260208201859052016105d5565b6001600160a01b0381165f908152600960209081526040918290208054835181840281018401909452808452606093928301828280156108f357602002820191905f5260205f20905b8154815260200190600101908083116108df575b50505050509050919050565b5f5f5f5f5f60605f60085f8981526020019081526020015f206040518060a00160405290815f8201805461093290611717565b80601f016020809104026020016040519081016040528092919081815260200182805461095e90611717565b80156109a95780601f10610980576101008083540402835291602001916109a9565b820191905f5260205f20905b81548152906001019060200180831161098c57829003601f168201915b50505091835250506001820154602082015260028201546040820152600382015460ff161515606082015260049091015460809091015290506109eb886107c1565b60208201516040830151606084015160808501519451939c929b5090995097509195509350915050565b6009602052815f5260405f208181548110610a2e575f80fd5b905f5260205f20015f91509150505481565b6060600180546103f890611717565b33610a59836107c1565b6001600160a01b031614610aa05760405162461bcd60e51b815260206004820152600e60248201526d139bdd081e5bdd5c881859d95b9d60921b60448201526064016104d4565b5f8281526008602052604090206002015415610aee5760405162461bcd60e51b815260206004820152600d60248201526c105b1c9958591e48189bdd5b99609a1b60448201526064016104d4565b5f82815260086020526040908190206002018290555182907fb95d5284c1bd82d7b55f6fffcb5bb603f47bd2023a9841581e54546648b1753e906105d59084815260200190565b6104ab338383610e49565b610b4b8484846104af565b6105373385858585610f10565b6060610b6382610c33565b505f610b7960408051602081019091525f815290565b90505f815111610b975760405180602001604052805f815250610bc2565b80610ba184611038565b604051602001610bb29291906118ac565b6040516020818303038152906040525b9392505050565b6001600160a01b039182165f90815260056020908152604080832093909416825291909152205460ff1690565b610bfe610dcb565b6001600160a01b038116610c2757604051631e4fbdf760e01b81525f60048201526024016104d4565b610c3081610df8565b50565b5f818152600260205260408120546001600160a01b0316806103e457604051637e27328960e01b8152600481018490526024016104d4565b61070283838360016110c8565b5f828152600260205260408120546001600160a01b0390811690831615610ca457610ca48184866111cc565b6001600160a01b03811615610cde57610cbf5f855f5f6110c8565b6001600160a01b0381165f90815260036020526040902080545f190190555b6001600160a01b03851615610d0c576001600160a01b0385165f908152600360205260409020805460010190555b5f8481526002602052604080822080546001600160a01b0319166001600160a01b0389811691821790925591518793918516917fddf252ad1be2c89b69c2b068fc378daa952ba7f163c4a11628f55a4df523b3ef91a4949350505050565b6001600160a01b038216610d9357604051633250574960e11b81525f60048201526024016104d4565b5f610d9f83835f610c78565b90506001600160a01b03811615610702576040516339e3563760e11b81525f60048201526024016104d4565b6006546001600160a01b031633146108215760405163118cdaa760e01b81523360048201526024016104d4565b600680546001600160a01b038381166001600160a01b0319831681179093556040519116919082907f8be0079c531659141344cd1fd0a4f28419497f9722a3daafe3b4186f6b6457e0905f90a35050565b6001600160a01b038316610e725760405163a9fbf51f60e01b81525f60048201526024016104d4565b6001600160a01b038216610ea457604051630b61174360e31b81526001600160a01b03831660048201526024016104d4565b6001600160a01b038381165f81815260056020908152604080832094871680845294825291829020805460ff191686151590811790915591519182527f17307eab39ab6107e8899845ad3d59bd9653f200f220920489ca2b5937696c31910160405180910390a3505050565b6001600160a01b0383163b1561103157604051630a85bd0160e11b81526001600160a01b0384169063150b7a0290610f529088908890879087906004016118c0565b6020604051808303815f875af1925050508015610f8c575060408051601f3d908101601f19168201909252610f89918101906118fc565b60015b610ff3573d808015610fb9576040519150601f19603f3d011682016040523d82523d5f602084013e610fbe565b606091505b5080515f03610feb57604051633250574960e11b81526001600160a01b03851660048201526024016104d4565b805160208201fd5b6001600160e01b03198116630a85bd0160e11b1461102f57604051633250574960e11b81526001600160a01b03851660048201526024016104d4565b505b5050505050565b60605f61104483611230565b60010190505f8167ffffffffffffffff8111156110635761106361148f565b6040519080825280601f01601f19166020018201604052801561108d576020820181803683370190505b5090508181016020015b5f19016f181899199a1a9b1b9c1cb0b131b232b360811b600a86061a8153600a850494508461109757509392505050565b80806110dc57506001600160a01b03821615155b1561119d575f6110eb84610c33565b90506001600160a01b038316158015906111175750826001600160a01b0316816001600160a01b031614155b801561112a57506111288184610bc9565b155b156111535760405163a9fbf51f60e01b81526001600160a01b03841660048201526024016104d4565b811561119b5783856001600160a01b0316826001600160a01b03167f8c5be1e5ebec7d5bd14f71427d1e84f3dd0314c0f7b2291e5b200ac8c7c3b92560405160405180910390a45b505b50505f90815260046020526040902080546001600160a01b0319166001600160a01b0392909216919091179055565b6111d7838383611307565b610702576001600160a01b03831661120557604051637e27328960e01b8152600481018290526024016104d4565b60405163177e802f60e01b81526001600160a01b0383166004820152602481018290526044016104d4565b5f8072184f03e93ff9f4daa797ed6e38ed64bf6a1f0160401b831061126e5772184f03e93ff9f4daa797ed6e38ed64bf6a1f0160401b830492506040015b6d04ee2d6d415b85acef8100000000831061129a576d04ee2d6d415b85acef8100000000830492506020015b662386f26fc1000083106112b857662386f26fc10000830492506010015b6305f5e10083106112d0576305f5e100830492506008015b61271083106112e457612710830492506004015b606483106112f6576064830492506002015b600a83106103e45760010192915050565b5f6001600160a01b038316158015906113635750826001600160a01b0316846001600160a01b0316148061134057506113408484610bc9565b8061136357505f828152600460205260409020546001600160a01b038481169116145b949350505050565b6001600160e01b031981168114610c30575f5ffd5b5f60208284031215611390575f5ffd5b8135610bc28161136b565b5f81518084528060208401602086015e5f602082860101526020601f19601f83011685010191505092915050565b602081525f610bc2602083018461139b565b5f602082840312156113eb575f5ffd5b5035919050565b80356001600160a01b0381168114611408575f5ffd5b919050565b5f5f6040838503121561141e575f5ffd5b611427836113f2565b946020939093013593505050565b5f5f5f60608486031215611447575f5ffd5b611450846113f2565b925061145e602085016113f2565b929592945050506040919091013590565b5f5f60408385031215611480575f5ffd5b50508035926020909101359150565b634e487b7160e01b5f52604160045260245ffd5b5f5f67ffffffffffffffff8411156114bd576114bd61148f565b50604051601f19601f85018116603f0116810181811067ffffffffffffffff821117156114ec576114ec61148f565b604052838152905080828401851015611503575f5ffd5b838360208301375f60208583010152509392505050565b5f6020828403121561152a575f5ffd5b813567ffffffffffffffff811115611540575f5ffd5b8201601f81018413611550575f5ffd5b611363848235602084016114a3565b60a081525f61157160a083018861139b565b60208301969096525060408101939093529015156060830152608090910152919050565b5f602082840312156115a5575f5ffd5b610bc2826113f2565b602080825282518282018190525f918401906040840190835b818110156115e55783518352602093840193909201916001016115c7565b509095945050505050565b60018060a01b0387168152856020820152846040820152831515606082015282608082015260c060a08201525f61162a60c083018461139b565b98975050505050505050565b5f5f60408385031215611647575f5ffd5b611650836113f2565b915060208301358015158114611664575f5ffd5b809150509250929050565b5f5f5f5f60808587031215611682575f5ffd5b61168b856113f2565b9350611699602086016113f2565b925060408501359150606085013567ffffffffffffffff8111156116bb575f5ffd5b8501601f810187136116cb575f5ffd5b6116da878235602084016114a3565b91505092959194509250565b5f5f604083850312156116f7575f5ffd5b611700836113f2565b915061170e602084016113f2565b90509250929050565b600181811c9082168061172b57607f821691505b60208210810361174957634e487b7160e01b5f52602260045260245ffd5b50919050565b5f6001820161176c57634e487b7160e01b5f52601160045260245ffd5b5060010190565b601f82111561070257805f5260205f20601f840160051c810160208510156117985750805b601f840160051c820191505b81811015611031575f81556001016117a4565b815167ffffffffffffffff8111156117d1576117d161148f565b6117e5816117df8454611717565b84611773565b6020601f821160018114611817575f83156118005750848201515b5f19600385901b1c1916600184901b178455611031565b5f84815260208120601f198516915b828110156118465787850151825560209485019460019092019101611826565b508482101561186357868401515f19600387901b60f8161c191681555b50505050600190811b01905550565b6001600160a01b03831681526040602082018190525f906113639083018461139b565b5f81518060208401855e5f93019283525090919050565b5f6113636118ba8386611895565b84611895565b6001600160a01b03858116825284166020820152604081018390526080606082018190525f906118f29083018461139b565b9695505050505050565b5f6020828403121561190c575f5ffd5b8151610bc28161136b56fea26469706673582212209b87c3006e2a06df3957162288fad145db2a3e5a28d272c40f9e02077f2481ad64736f6c634300081b0033",
  "linkReferences": {},
  "deployedLinkReferences": {}
}