{
  "_format": "hh-sol-artifact-1",
  "contractName": "MockIdentityRegistry",
  "sourceName": "src/MockRegistry.sol",
  "abi": [
    {
      "inputs": [
        {
          "internalType": "uint256",
          "name": "agentId",
          "type": "uint256"
        }
      ],
      "name": "ownerOf",
      "outputs": [
        {
          "internalType": "address",
          "name": "",
          "type": "address"
        }
      ],
      "stateMutability": "view",
      "type": "function"
    },
    {
      "inputs": [
        {
          "internalType": "string",
          "name": "agentURI",
          "type": "string"
        }
      ],
      "name": "register",
      "outputs": [
        {
          "internalType": "uint256",
          "name": "agentId",
          "type": "uint256"
        }
      ],
      "stateMutability": "nonpayable",
      "type": "function"
    },
    {
      "inputs": [
        {
          "internalType": "uint256",
          "name": "agentId",
          "type": "uint256"
        }
      ],
      "name": "tokenURI",
      "outputs": [
        {
          "internalType": "string",
          "name": "",
          "type": "string"
        }
      ],
      "stateMutability": "view",
      "type": "function"
    }
  ],
  "bytecode": "0x608060405260015f553480156012575f5ffd5b50610480806100205f395ff3fe608060405234801561000f575f5ffd5b506004361061003f575f3560e01c80636352211e14610043578063c87b56dd14610073578063f2c298be14610093575b5f5ffd5b61005661005136600461021a565b6100b4565b6040516001600160a01b0390911681526020015b60405180910390f35b61008661008136600461021a565b61012d565b60405161006a9190610231565b6100a66100a1366004610266565b6101cc565b60405190815260200161006a565b5f818152600160205260408120546001600160a01b03166101125760405162461bcd60e51b81526020600482015260146024820152731059d95b9d08191bd95cc81b9bdd08195e1a5cdd60621b604482015260640160405180910390fd5b505f908152600160205260409020546001600160a01b031690565b5f818152600260205260409020805460609190610149906102d4565b80601f0160208091040260200160405190810160405280929190818152602001828054610175906102d4565b80156101c05780601f10610197576101008083540402835291602001916101c0565b820191905f5260205f20905b8154815290600101906020018083116101a357829003601f168201915b50505050509050919050565b5f805481806101da8361030c565b909155505f81815260016020908152604080832080546001600160a01b0319163317905560029091529020909150610213838583610390565b5092915050565b5f6020828403121561022a575f5ffd5b5035919050565b602081525f82518060208401528060208501604085015e5f604082850101526040601f19601f83011684010191505092915050565b5f5f60208385031215610277575f5ffd5b823567ffffffffffffffff81111561028d575f5ffd5b8301601f8101851361029d575f5ffd5b803567ffffffffffffffff8111156102b3575f5ffd5b8560208284010111156102c4575f5ffd5b6020919091019590945092505050565b600181811c908216806102e857607f821691505b60208210810361030657634e487b7160e01b5f52602260045260245ffd5b50919050565b5f6001820161032957634e487b7160e01b5f52601160045260245ffd5b5060010190565b634e487b7160e01b5f52604160045260245ffd5b601f82111561038b57805f5260205f20601f840160051c810160208510156103695750805b601f840160051c820191505b81811015610388575f8155600101610375565b50505b505050565b67ffffffffffffffff8311156103a8576103a8610330565b6103bc836103b683546102d4565b83610344565b5f601f8411600181146103ed575f85156103d65750838201355b5f19600387901b1c1916600186901b178355610388565b5f83815260208120601f198716915b8281101561041c57868501358255602094850194600190920191016103fc565b5086821015610438575f1960f88860031b161c19848701351681555b505060018560011b018355505050505056fea2646970667358221220b552e5afd35de26fa08e559a1883b3825ff5dc3eb4278c34780023a3a0a44c5e64736f6c634300081b0033",
  "linkReferences": {},
  "deployedLinkReferences": {}
}