{"src/AgentRootAccountability.sol":{"AgentRootAccountability":{"abi":[{"inputs":[{"internalType":"address","name":"_registry","type":"address"}],"stateMutability":"nonpayable","type":"constructor"},{"anonymous":false,"inputs":[{"indexed":true,"internalType":"uint256","name":"agentId","type":"uint256"},{"indexed":true,"internalType":"address","name":"deployer","type":"address"},{"indexed":false,"internalType":"bytes32","name":"nullifierHash","type":"bytes32"}],"name":"AccountabilityLinked","type":"event"},{"inputs":[{"internalType":"uint256","name":"agentId","type":"uint256"}],"name":"getHumanForAgent","outputs":[{"internalType":"bytes32","name":"","type":"bytes32"}],"stateMutability":"view","type":"function"},{"inputs":[{"internalType":"uint256","name":"","type":"uint256"}],"name":"humanAccountability","outputs":[{"internalType":"bytes32","name":"","type":"bytes32"}],"stateMutability":"view","type":"function"},{"inputs":[],"name":"identityRegistry","outputs":[{"internalType":"contract IIdentityRegistry","name":"","type":"address"}],"stateMutability":"view","type":"function"},{"inputs":[{"internalType":"string","name":"agentURI","type":"string"},{"internalType":"bytes32","name":"nullifierHash","type":"bytes32"}],"name":"registerAndBind","outputs":[{"internalType":"uint256","name":"","type":"uint256"}],"stateMutability":"nonpayable","type":"function"}],"evm":{"bytecode":{"linkReferences":{},"object":"60a0604052348015600e575f5ffd5b506040516103ac3803806103ac833981016040819052602b91603b565b6001600160a01b03166080526066565b5f60208284031215604a575f5ffd5b81516001600160a01b0381168114605f575f5ffd5b9392505050565b6080516103286100845f395f81816098015261015c01526103285ff3fe608060405234801561000f575f5ffd5b506004361061004a575f3560e01c8063018a321e1461004e5780630b2307c714610080578063134e18f4146100935780635e0cddff146100d2575b5f5ffd5b61006d61005c366004610224565b5f6020819052908152604090205481565b6040519081526020015b60405180910390f35b61006d61008e36600461023b565b6100f1565b6100ba7f000000000000000000000000000000000000000000000000000000000000000081565b6040516001600160a01b039091168152602001610077565b61006d6100e0366004610224565b5f9081526020819052604090205490565b5f816101435760405162461bcd60e51b815260206004820152601e60248201527f4e756c6c696669657220686173682063616e6e6f7420626520656d7074790000604482015260640160405180910390fd5b6040516379614c5f60e11b81525f906001600160a01b037f0000000000000000000000000000000000000000000000000000000000000000169063f2c298be9061019390889088906004016102ad565b6020604051808303815f875af11580156101af573d5f5f3e3d5ffd5b505050506040513d601f19601f820116820180604052508101906101d391906102db565b5f81815260208181526040918290208690559051858152919250339183917f2322e163e57078016e7102c54bfb6c5cce84a682c9dff3e7e2988f6a49a74a6c910160405180910390a3949350505050565b5f60208284031215610234575f5ffd5b5035919050565b5f5f5f6040848603121561024d575f5ffd5b833567ffffffffffffffff811115610263575f5ffd5b8401601f81018613610273575f5ffd5b803567ffffffffffffffff811115610289575f5ffd5b86602082840101111561029a575f5ffd5b6020918201979096509401359392505050565b60208152816020820152818360408301375f818301604090810191909152601f909201601f19160101919050565b5f602082840312156102eb575f5ffd5b505191905056fea2646970667358221220c31eb00a34659628d87d2079c06193ea8d2344c5e2b9f074549f5936f003c1f264736f6c634300081b0033","opcodes":"PUSH1 0xA0 PUSH1 0x40 MSTORE CALLVALUE DUP1 ISZERO PUSH1 0xE JUMPI PUSH0 PUSH0 REVERT JUMPDEST POP PUSH1 0x40 MLOAD PUSH2 0x3AC CODESIZE SUB DUP1 PUSH2 0x3AC DUP4 CODECOPY DUP2 ADD PUSH1 0x40 DUP2 SWAP1 MSTORE PUSH1 0x2B SWAP2 PUSH1 0x3B JUMP JUMPDEST PUSH1 0x1 PUSH1 0x1 PUSH1 0xA0 SHL SUB AND PUSH1 0x80 MSTORE PUSH1 0x66 JUMP JUMPDEST PUSH0 PUSH1 0x20 DUP3 DUP5 SUB SLT ISZERO PUSH1 0x4A JUMPI PUSH0 PUSH0 REVERT JUMPDEST DUP2 MLOAD PUSH1 0x1 PUSH1 0x1 PUSH1 0xA0 SHL SUB DUP2 AND DUP2 EQ PUSH1 0x5F JUMPI PUSH0 PUSH0 REVERT JUMPDEST SWAP4 SWAP3 POP POP POP JUMP JUMPDEST PUSH1 0x80 MLOAD PUSH2 0x328 PUSH2 0x84 PUSH0 CODECOPY PUSH0 DUP2 DUP2 PUSH1 0x98 ADD MSTORE PUSH2 0x15C ADD MSTORE PUSH2 0x328 PUSH0 RETURN INVALID PUSH1 0x80 PUSH1 0x40 MSTORE CALLVALUE DUP1 ISZERO PUSH2 0xF JUMPI PUSH0 PUSH0 REVERT JUMPDEST POP PUSH1 0x4 CALLDATASIZE LT PUSH2 0x4A JUMPI PUSH0 CALLDATALOAD PUSH1 0xE0 SHR DUP1 PUSH4 0x18A321E EQ PUSH2 0x4E JUMPI DUP1 PUSH4 0xB2307C7 EQ PUSH2 0x80 JUMPI DUP1 PUSH4 0x134E18F4 EQ PUSH2 0x93 JUMPI DUP1 PUSH4 0x5E0CDDFF EQ PUSH2 0xD2 JUMPI JUMPDEST PUSH0 PUSH0 REVERT JUMPDEST PUSH2 0x6D PUSH2 0x5C CALLDATASIZE PUSH1 0x4 PUSH2 0x224 JUMP JUMPDEST PUSH0 PUSH1 0x20 DUP2 SWAP1 MSTORE SWAP1 DUP2 MSTORE PUSH1 0x40 SWAP1 KECCAK256 SLOAD DUP2 JUMP JUMPDEST PUSH1 0x40 MLOAD SWAP1 DUP2 MSTORE PUSH1 0x20 ADD JUMPDEST PUSH1 0x40 MLOAD DUP1 SWAP2 SUB SWAP1 RETURN JUMPDEST PUSH2 0x6D PUSH2 0x8E CALLDATASIZE PUSH1 0x4 PUSH2 0x23B JUMP JUMPDEST PUSH2 0xF1 JUMP JUMPDEST PUSH2 0xBA PUSH32 0x0 DUP2 JUMP JUMPDEST PUSH1 0x40 MLOAD PUSH1 0x1 PUSH1 0x1 PUSH1 0xA0 SHL SUB SWAP1 SWAP2 AND DUP2 MSTORE PUSH1 0x20 ADD PUSH2 0x77 JUMP JUMPDEST PUSH2 0x6D PUSH2 0xE0 CALLDATASIZE PUSH1 0x4 PUSH2 0x224 JUMP JUMPDEST PUSH0 SWAP1 DUP2 MSTORE PUSH1 0x20 DUP2 SWAP1 MSTORE PUSH1 0x40 SWAP1 KECCAK256 SLOAD SWAP1 JUMP JUMPDEST PUSH0 DUP2 PUSH2 0x143 JUMPI PUSH1 0x40 MLOAD PUSH3 0x461BCD PUSH1 0xE5 SHL DUP2 MSTORE PUSH1 0x20 PUSH1 0x4 DUP3 ADD MSTORE PUSH1 0x1E PUSH1 0x24 DUP3 ADD MSTORE PUSH32 0x4E756C6C696669657220686173682063616E6E6F7420626520656D7074790000 PUSH1 0x44 DUP3 ADD MSTORE PUSH1 0x64 ADD PUSH1 0x40 MLOAD DUP1 SWAP2 SUB SWAP1 REVERT JUMPDEST PUSH1 0x40 MLOAD PUSH4 0x79614C5F PUSH1 0xE1 SHL DUP2 MSTORE PUSH0 SWAP1 PUSH1 0x1 PUSH1 0x1 PUSH1 0xA0 SHL SUB PUSH32 0x0 AND SWAP1 PUSH4 0xF2C298BE SWAP1 PUSH2 0x193 SWAP1 DUP9 SWAP1 DUP9 SWAP1 PUSH1 0x4 ADD PUSH2 0x2AD JUMP JUMPDEST PUSH1 0x20 PUSH1 0x40 MLOAD DUP1 DUP4 SUB DUP2 PUSH0 DUP8 GAS CALL ISZERO DUP1 ISZERO PUSH2 0x1AF JUMPI RETURNDATASIZE PUSH0 PUSH0 RETURNDATACOPY RETURNDATASIZE PUSH0 REVERT JUMPDEST POP POP POP POP PUSH1 0x40 MLOAD RETURNDATASIZE PUSH1 0x1F NOT PUSH1 0x1F DUP3 ADD AND DUP3 ADD DUP1 PUSH1 0x40 MSTORE POP DUP2 ADD SWAP1 PUSH2 0x1D3 SWAP2 SWAP1 PUSH2 0x2DB JUMP JUMPDEST PUSH0 DUP2 DUP2 MSTORE PUSH1 0x20 DUP2 DUP2 MSTORE PUSH1 0x40 SWAP2 DUP3 SWAP1 KECCAK256 DUP7 SWAP1 SSTORE SWAP1 MLOAD DUP6 DUP2 MSTORE SWAP2 SWAP3 POP CALLER SWAP2 DUP4 SWAP2 PUSH32 0x2322E163E57078016E7102C54BFB6C5CCE84A682C9DFF3E7E2988F6A49A74A6C SWAP2 ADD PUSH1 0x40 MLOAD DUP1 SWAP2 SUB SWAP1 LOG3 SWAP5 SWAP4 POP POP POP POP JUMP JUMPDEST PUSH0 PUSH1 0x20 DUP3 DUP5 SUB SLT ISZERO PUSH2 0x234 JUMPI PUSH0 PUSH0 REVERT JUMPDEST POP CALLDATALOAD SWAP2 SWAP1 POP JUMP JUMPDEST PUSH0 PUSH0 PUSH0 PUSH1 0x40 DUP5 DUP7 SUB SLT ISZERO PUSH2 0x24D JUMPI PUSH0 PUSH0 REVERT JUMPDEST DUP4 CALLDATALOAD PUSH8 0xFFFFFFFFFFFFFFFF DUP2 GT ISZERO PUSH2 0x263 JUMPI PUSH0 PUSH0 REVERT JUMPDEST DUP5 ADD PUSH1 0x1F DUP2 ADD DUP7 SGT PUSH2 0x273 JUMPI PUSH0 PUSH0 REVERT JUMPDEST DUP1 CALLDATALOAD PUSH8 0xFFFFFFFFFFFFFFFF DUP2 GT ISZERO PUSH2 0x289 JUMPI PUSH0 PUSH0 REVERT JUMPDEST DUP7 PUSH1 0x20 DUP3 DUP5 ADD ADD GT ISZERO PUSH2 0x29A JUMPI PUSH0 PUSH0 REVERT JUMPDEST PUSH1 0x20 SWAP2 DUP3 ADD SWAP8 SWAP1 SWAP7 POP SWAP5 ADD CALLDATALOAD SWAP4 SWAP3 POP POP POP JUMP JUMPDEST PUSH1 0x20 DUP2 MSTORE DUP2 PUSH1 0x20 DUP3 ADD MSTORE DUP2 DUP4 PUSH1 0x40 DUP4 ADD CALLDATACOPY PUSH0 DUP2 DUP4 ADD PUSH1 0x40 SWAP1 DUP2 ADD SWAP2 SWAP1 SWAP2 MSTORE PUSH1 0x1F SWAP1 SWAP3 ADD PUSH1 0x1F NOT AND ADD ADD SWAP2 SWAP1 POP JUMP JUMPDEST PUSH0 PUSH1 0x20 DUP3 DUP5 SUB SLT ISZERO PUSH2 0x2EB JUMPI PUSH0 PUSH0 REVERT JUMPDEST POP MLOAD SWAP2 SWAP1 POP JUMP INVALID LOG2 PUSH5 0x6970667358 0x22 SLT KECCAK256 0xC3 0x1E 0xB0 EXP CALLVALUE PUSH6 0x9628D87D2079 0xC0 PUSH2 0x93EA DUP14 0x23 PREVRANDAO 0xC5 0xE2 0xB9 CREATE PUSH21 0x549F5936F003C1F264736F6C634300081B00330000 "},"methodIdentifiers":{"getHumanForAgent(uint256)":"5e0cddff","humanAccountability(uint256)":"018a321e","identityRegistry()":"134e18f4","registerAndBind(string,bytes32)":"0b2307c7"}}}}}