{
  "_format": "hh-sol-artifact-1",
  "contractName": "AgentRootAccountability",
  "sourceName": "src/AgentRootAccountability.sol",
  "abi": [
    {
      "inputs": [
        {
          "internalType": "address",
          "name": "_registry",
          "type": "address"
        }
      ],
      "stateMutability": "nonpayable",
      "type": "constructor"
    },
    {
      "anonymous": false,
      "inputs": [
        {
          "indexed": true,
          "internalType": "uint256",
          "name": "agentId",
          "type": "uint256"
        },
        {
          "indexed": true,
          "internalType": "address",
          "name": "deployer",
          "type": "address"
        },
        {
          "indexed": false,
          "internalType": "bytes32",
          "name": "nullifierHash",
          "type": "bytes32"
        }
      ],
      "name": "AccountabilityLinked",
      "type": "event"
    },
    {
      "inputs": [
        {
          "internalType": "uint256",
          "name": "agentId",
          "type": "uint256"
        }
      ],
      "name": "getHumanForAgent",
      "outputs": [
        {
          "internalType": "bytes32",
          "name": "",
          "type": "bytes32"
        }
      ],
      "stateMutability": "view",
      "type": "function"
    },
    {
      "inputs": [
        {
          "internalType": "uint256",
          "name": "",
          "type": "uint256"
        }
      ],
      "name": "humanAccountability",
      "outputs": [
        {
          "internalType": "bytes32",
          "name": "",
          "type": "bytes32"
        }
      ],
      "stateMutability": "view",
      "type": "function"
    },
    {
      "inputs": [],
      "name": "identityRegistry",
      "outputs": [
        {
          "internalType": "contract IIdentityRegistry",
          "name": "",
          "type": "address"
        }
      ],
      "stateMutability": "view",
      "type": "function"
    },
    {
      "inputs": [
        {
          "internalType": "string",
          "name": "agentURI",
          "type": "string"
        },
        {
          "internalType": "bytes32",
          "name": "nullifierHash",
          "type": "bytes32"
        }
      ],
      "name": "registerAndBind",
      "outputs": [
        {
          "internalType": "uint256",
          "name": "",
          "type": "uint256"
        }
      ],
      "stateMutability": "nonpayable",
      "type": "function"
    }
  ],
  "bytecode": "0x60a0604052348015600e575f5ffd5b506040516103ac3803806103ac833981016040819052602b91603b565b6001600160a01b03166080526066565b5f60208284031215604a575f5ffd5b81516001600160a01b0381168114605f575f5ffd5b9392505050565b6080516103286100845f395f81816098015261015c01526103285ff3fe608060405234801561000f575f5ffd5b506004361061004a575f3560e01c8063018a321e1461004e5780630b2307c714610080578063134e18f4146100935780635e0cddff146100d2575b5f5ffd5b61006d61005c366004610224565b5f6020819052908152604090205481565b6040519081526020015b60405180910390f35b61006d61008e36600461023b565b6100f1565b6100ba7f000000000000000000000000000000000000000000000000000000000000000081565b6040516001600160a01b039091168152602001610077565b61006d6100e0366004610224565b5f9081526020819052604090205490565b5f816101435760405162461bcd60e51b815260206004820152601e60248201527f4e756c6c696669657220686173682063616e6e6f7420626520656d7074790000604482015260640160405180910390fd5b6040516379614c5f60e11b81525f906001600160a01b037f0000000000000000000000000000000000000000000000000000000000000000169063f2c298be9061019390889088906004016102ad565b6020604051808303815f875af11580156101af573d5f5f3e3d5ffd5b505050506040513d601f19601f820116820180604052508101906101d391906102db565b5f81815260208181526040918290208690559051858152919250339183917f2322e163e57078016e7102c54bfb6c5cce84a682c9dff3e7e2988f6a49a74a6c910160405180910390a3949350505050565b5f60208284031215610234575f5ffd5b5035919050565b5f5f5f6040848603121561024d575f5ffd5b833567ffffffffffffffff811115610263575f5ffd5b8401601f81018613610273575f5ffd5b803567ffffffffffffffff811115610289575f5ffd5b86602082840101111561029a575f5ffd5b6020918201979096509401359392505050565b60208152816020820152818360408301375f818301604090810191909152601f909201601f19160101919050565b5f602082840312156102eb575f5ffd5b505191905056fea2646970667358221220c31eb00a34659628d87d2079c06193ea8d2344c5e2b9f074549f5936f003c1f264736f6c634300081b0033",
  "linkReferences": {},
  "deployedLinkReferences": {}
}